S01600004156523132385F4155544F5341522E737265630C
S113000045C0000060C000005EC000005CC000008D
S11300105AC0000058C0000056C0000054C0000080
S113002052C0000050C000004EC000004CC0000090
S11300304AC0000048C0000046C0000044C00000A0
S113004042C0000040C000003EC000003CC00000B0
S11300503AC0000038C0000036C0000034C00000C0
S113006032C0000030C000002EC000002CC00000D0
S11300702AC0000028C0000026C0000024C00000E0
S113008022C0000020C000001EC0000011241FBEBA
S1130090CFEFD0E1DEBFCDBF11E0A0E0B1E0EEEDE7
S11300A0F3E000E00BBF02C007900D92A432B10749
S11300B0D9F721E0A4E2B1E001C01D92AD32B2074C
S11300C0E1F70FD18AC19CCF10922C0180E051C07E
S11300D0089584E0E8E2F1E0DF01982F1D929A95FB
S11300E0E9F7E4E2F1E0DF011D928A95E9F708956A
S11300F08FD0EFDFE9CF0895CF93DF93EC01833006
S1130100910598F0FC01EE0FFF1FCF01880F991F96
S1130110880F991F880F991FE80FF91FE050FF4FB0
S11301200088F189E02DCE010995C330D10518F47A
S11301302C2F3D2F02C020E030E020932C01822F91
S1130140932F880F991FFC01EE0FFF1FEE0FFF1F67
S1130150EE0FFF1F8E0F9F1FFC01E050FF4F068420
S1130160F785E02D309711F0CE010995DF91CF91FD
S11301700895E82FF0E0EE0FFF1F9F01220F331FB9
S1130180220F331F220F331FE20FF31FE050FF4FE4
S11301900684F785E02D309711F090E009950895D5
S11301A0089508950895089583B1806183B92FEF68
S11301B08FE796E1215080409040E1F700C00000B5
S11301C083B18F7E83B92FEF8FE796E12150804072
S11301D09040E1F700C000000895089580912C013B
S11301E090E08ACF089508950895089508958FEFB3
S11301F082B981B3806381BB13B882B38F7C82BB25
S1130200089540E855E260E070E081E0ADC00895F3
S1130210EEDF33D080E068D068D0F3CF08958BB39D
S113022084608BBB81E38A95F1F700008BB38B7FED
S11302308BBB0895807F9BB397789BBB9BB38695BC
S1130240892B8BBBECCF0895CF93C82F8BB38E7FB4
S11302508BBB8C2FEFDF8C2F8295807FEBDF87E6C3
S11302608A95F1F70000CF91089581E0EDDF86E6ED
S11302709EE00197F1F7000008958AB38D678ABB69
S11302808AB381608ABB8BB38E7F8BBB8BB382783E
S11302908BBB8FEF9BE60197F1F700C0000080E372
S11302A0C9DF8FEF93E20197F1F700C00000B7DFD9
S11302B083E397E00197F1F7B2DF83E397E00197D7
S11302C0F1F780E2B7DF8FEF93E20197F1F700C017
S11302D0000088E2B9DF8CE0B7DF86E0B5DFC5CF88
S11302E0089506DF7BDFFECF089587B1806487B968
S11302F086B1856886B90895CF93C82FDB01CA01FA
S113030080569940A109B109813A984BA140B105A1
S1130310D0F4440F551F661F771F440F551F661FE7
S1130320771F9A01AB01220F331F441F551F220F61
S1130330331F441F551F60E070E880E790E02BD026
S11303402150310902C026E431E0CC2319F0C13038
S113035029F008C029B93093900004C02093990073
S113036030939800CF910895882319F0813049F093
S1130370089598E19AB996E0909395001BB8BCCF84
S1130380089598E190939A0096E090939D001092BE
S11303909B00B2CF0895A1E21A2EAA1BBB1BFD013C
S11303A00DC0AA1FBB1FEE1FFF1FA217B307E40750
S11303B0F50720F0A21BB30BE40BF50B661F771FA8
S11303C0881F991F1A9469F7609570958095909588
S11103D09B01AC01BD01CF010895F894FFCF4D
S11303DED0000000D1000000D2000000D300D400F1
S11303EEED000000F3000000000000000000F40027
S10703FEF500F6000C
S9030000FC
